{
  "contractName": "WikiChain",
  "abi": [
    {
      "inputs": [],
      "payable": true,
      "stateMutability": "payable",
      "type": "constructor"
    },
    {
      "anonymous": false,
      "inputs": [
        {
          "indexed": false,
          "internalType": "address",
          "name": "",
          "type": "address"
        },
        {
          "indexed": false,
          "internalType": "uint256",
          "name": "",
          "type": "uint256"
        },
        {
          "indexed": false,
          "internalType": "uint256",
          "name": "",
          "type": "uint256"
        },
        {
          "indexed": false,
          "internalType": "string",
          "name": "",
          "type": "string"
        }
      ],
      "name": "callContractData",
      "type": "event"
    },
    {
      "anonymous": false,
      "inputs": [
        {
          "indexed": false,
          "internalType": "uint256",
          "name": "",
          "type": "uint256"
        },
        {
          "indexed": false,
          "internalType": "address",
          "name": "",
          "type": "address"
        },
        {
          "indexed": false,
          "internalType": "string",
          "name": "",
          "type": "string"
        },
        {
          "indexed": false,
          "internalType": "uint256",
          "name": "",
          "type": "uint256"
        },
        {
          "indexed": false,
          "internalType": "uint256",
          "name": "",
          "type": "uint256"
        }
      ],
      "name": "contractAdded",
      "type": "event"
    },
    {
      "anonymous": false,
      "inputs": [
        {
          "indexed": false,
          "internalType": "string",
          "name": "",
          "type": "string"
        },
        {
          "indexed": false,
          "internalType": "uint256",
          "name": "",
          "type": "uint256"
        },
        {
          "indexed": false,
          "internalType": "uint256",
          "name": "",
          "type": "uint256"
        },
        {
          "indexed": false,
          "internalType": "string",
          "name": "",
          "type": "string"
        }
      ],
      "name": "contractAlreadyExist",
      "type": "event"
    },
    {
      "anonymous": false,
      "inputs": [
        {
          "indexed": false,
          "internalType": "address",
          "name": "",
          "type": "address"
        },
        {
          "indexed": false,
          "internalType": "uint256",
          "name": "",
          "type": "uint256"
        },
        {
          "indexed": false,
          "internalType": "uint256",
          "name": "",
          "type": "uint256"
        }
      ],
      "name": "newDeposit",
      "type": "event"
    },
    {
      "anonymous": false,
      "inputs": [
        {
          "indexed": false,
          "internalType": "uint256",
          "name": "",
          "type": "uint256"
        },
        {
          "indexed": false,
          "internalType": "string",
          "name": "",
          "type": "string"
        }
      ],
      "name": "requestFunction",
      "type": "event"
    },
    {
      "payable": true,
      "stateMutability": "payable",
      "type": "fallback"
    },
    {
      "constant": true,
      "inputs": [],
      "name": "getRegisterCounter",
      "outputs": [
        {
          "internalType": "uint256",
          "name": "",
          "type": "uint256"
        }
      ],
      "payable": false,
      "stateMutability": "view",
      "type": "function"
    },
    {
      "constant": false,
      "inputs": [
        {
          "internalType": "string",
          "name": "rccont",
          "type": "string"
        },
        {
          "internalType": "string",
          "name": "cont",
          "type": "string"
        },
        {
          "internalType": "string",
          "name": "sdate",
          "type": "string"
        },
        {
          "internalType": "string",
          "name": "edate",
          "type": "string"
        }
      ],
      "name": "setLoopConfig",
      "outputs": [
        {
          "internalType": "bool",
          "name": "",
          "type": "bool"
        }
      ],
      "payable": false,
      "stateMutability": "nonpayable",
      "type": "function"
    },
    {
      "constant": false,
      "inputs": [
        {
          "components": [
            {
              "internalType": "uint256",
              "name": "pageid",
              "type": "uint256"
            },
            {
              "internalType": "uint256",
              "name": "revid",
              "type": "uint256"
            },
            {
              "internalType": "string",
              "name": "title",
              "type": "string"
            },
            {
              "internalType": "string",
              "name": "lastmodified",
              "type": "string"
            },
            {
              "internalType": "string",
              "name": "url",
              "type": "string"
            },
            {
              "internalType": "string",
              "name": "description",
              "type": "string"
            }
          ],
          "internalType": "struct WikiChainUtilities.Article[]",
          "name": "datas",
          "type": "tuple[]"
        }
      ],
      "name": "generateContracts4Articles",
      "outputs": [
        {
          "internalType": "uint256",
          "name": "",
          "type": "uint256"
        }
      ],
      "payable": false,
      "stateMutability": "nonpayable",
      "type": "function"
    },
    {
      "constant": false,
      "inputs": [
        {
          "internalType": "string",
          "name": "url",
          "type": "string"
        }
      ],
      "name": "request",
      "outputs": [
        {
          "components": [
            {
              "internalType": "address",
              "name": "myaddress",
              "type": "address"
            },
            {
              "internalType": "uint256",
              "name": "pageid",
              "type": "uint256"
            },
            {
              "internalType": "uint256",
              "name": "revid",
              "type": "uint256"
            },
            {
              "internalType": "string",
              "name": "url",
              "type": "string"
            },
            {
              "internalType": "string",
              "name": "title",
              "type": "string"
            },
            {
              "internalType": "string",
              "name": "description",
              "type": "string"
            },
            {
              "internalType": "string",
              "name": "lastmodified",
              "type": "string"
            }
          ],
          "internalType": "struct WikiChainUtilities.ArticleOutput[]",
          "name": "",
          "type": "tuple[]"
        }
      ],
      "payable": false,
      "stateMutability": "nonpayable",
      "type": "function"
    },
    {
      "constant": true,
      "inputs": [
        {
          "internalType": "address payable",
          "name": "article",
          "type": "address"
        }
      ],
      "name": "callContract",
      "outputs": [
        {
          "components": [
            {
              "internalType": "address",
              "name": "myaddress",
              "type": "address"
            },
            {
              "internalType": "uint256",
              "name": "pageid",
              "type": "uint256"
            },
            {
              "internalType": "uint256",
              "name": "revid",
              "type": "uint256"
            },
            {
              "internalType": "string",
              "name": "url",
              "type": "string"
            },
            {
              "internalType": "string",
              "name": "title",
              "type": "string"
            },
            {
              "internalType": "string",
              "name": "description",
              "type": "string"
            },
            {
              "internalType": "string",
              "name": "lastmodified",
              "type": "string"
            }
          ],
          "internalType": "struct WikiChainUtilities.ArticleOutput",
          "name": "",
          "type": "tuple"
        }
      ],
      "payable": false,
      "stateMutability": "view",
      "type": "function"
    }
  ],
  "bytecode": "0x60806040526000600155600034111562000051577f45751137d6df48fc3f75b9888b77c9d8f4689c5baafe29811a9a86e43706aecf333442604051620000489392919062000079565b60405180910390a15b6200011c565b6200006281620000e0565b82525050565b6200007381620000d6565b82525050565b600060608201905062000090600083018662000057565b6200009f602083018562000068565b620000ae604083018462000068565b949350505050565b600073ffffffffffffffffffffffffffffffffffffffff82169050919050565b6000819050919050565b6000620000ed82620000f4565b9050919050565b6000620001018262000108565b9050919050565b60006200011582620000b6565b9050919050565b613073806200012c6000396000f3fe608060405260043610620000505760003560e01c80632c19988914620000ab57806368874f1f14620000ef578063714a091f14620001335780639c7daaf21462000177578063e00d333e14620001bb575b600034116200005b57fe5b600080369050146200006c57600080fd5b7f45751137d6df48fc3f75b9888b77c9d8f4689c5baafe29811a9a86e43706aecf333442604051620000a19392919062001a92565b60405180910390a1005b348015620000b857600080fd5b50620000d76004803603620000d191908101906200125f565b620001eb565b604051620000e6919062001acf565b60405180910390f35b348015620000fc57600080fd5b506200011b6004803603620001159190810190620011ee565b620003a4565b6040516200012a919062001bf1565b60405180910390f35b3480156200014057600080fd5b506200015f60048036036200015991908101906200121a565b620004b5565b6040516200016e919062001c15565b60405180910390f35b3480156200018457600080fd5b50620001a360048036036200019d9190810190620012a4565b620008b9565b604051620001b2919062001af3565b60405180910390f35b348015620001c857600080fd5b50620001d36200092b565b604051620001e2919062001c15565b60405180910390f35b6060600082511162000234576040517f08c379a00000000000000000000000000000000000000000000000000000000081526004016200022b9062001b69565b60405180910390fd5b606080600080856040516200024a919062001a45565b90815260200160405180910390208054905014620003595760008460405162000274919062001a45565b9081526020016040518091039020805480602002602001604051908101604052809291908181526020016000905b828210156200034057838290600052602060002090600302016040518060600160405290816000820160009054906101000a900473ffffffffffffffffffffffffffffffffffffffff1673ffffffffffffffffffffffffffffffffffffffff1673ffffffffffffffffffffffffffffffffffffffff1681526020016001820154815260200160028201548152505081526020019060010190620002a2565b505050509050620003518162000935565b91506200035e565b606091505b7fec7a837a329a03e016cd81d845e4a16098529b67dc6d63c19436dc0dce5e60458251856040516200039292919062001c96565b60405180910390a18192505050919050565b620003ae62000c33565b600073ffffffffffffffffffffffffffffffffffffffff168273ffffffffffffffffffffffffffffffffffffffff16141562000421576040517f08c379a0000000000000000000000000000000000000000000000000000000008152600401620004189062001bad565b60405180910390fd5b60008290508073ffffffffffffffffffffffffffffffffffffffff166347e468066040518163ffffffff1660e01b815260040160006040518083038186803b1580156200046d57600080fd5b505afa15801562000482573d6000803e3d6000fd5b505050506040513d6000823e3d601f19601f82011682018060405250620004ad919081019062001374565b915050919050565b600080825111620004fd576040517f08c379a0000000000000000000000000000000000000000000000000000000008152600401620004f49062001b8b565b60405180910390fd5b60006200050962000c86565b60008451905060008090505b81811015620008ab57620005738682815181106200052f57fe5b6020026020010151608001518783815181106200054857fe5b6020026020010151600001518884815181106200056157fe5b60200260200101516020015162000aa4565b1562000604577f2a129b568303acd482e06818afe67500746cf209da4f4460c5531af4fa96c389868281518110620005a757fe5b602002602001015160800151878381518110620005c057fe5b602002602001015160000151888481518110620005d957fe5b602002602001015160200151604051620005f69392919062001b10565b60405180910390a16200089d565b6301c9c380604051620006179062000cbd565b6040518091039082f08015801562000633573d6000803e3d6000fd5b50905093508373ffffffffffffffffffffffffffffffffffffffff1663497af677308884815181106200066257fe5b60200260200101516040518363ffffffff1660e01b81526004016200068992919062001a5e565b600060405180830381600087803b158015620006a457600080fd5b505af1158015620006b9573d6000803e3d6000fd5b5050505083836000019073ffffffffffffffffffffffffffffffffffffffff16908173ffffffffffffffffffffffffffffffffffffffff16815250508581815181106200070257fe5b6020026020010151602001518360200181815250508581815181106200072457fe5b60200260200101516000015183604001818152505060008682815181106200074857fe5b60200260200101516080015160405162000763919062001a2c565b9081526020016040518091039020839080600181540180825580915050906001820390600052602060002090600302016000909192909190915060008201518160000160006101000a81548173ffffffffffffffffffffffffffffffffffffffff021916908373ffffffffffffffffffffffffffffffffffffffff16021790555060208201518160010155604082015181600201555050506001600081548092919060010191905055507f51f77e916ed4883a80ea84a5d89b03dc18d0d59630155da8be96c5a93ec46b4d60015484600001518884815181106200084357fe5b6020026020010151608001518985815181106200085c57fe5b6020026020010151600001518a86815181106200087557fe5b6020026020010151602001516040516200089495949392919062001c32565b60405180910390a15b808060010191505062000515565b506001549350505050919050565b60008460029080519060200190620008d392919062000ccb565b508360039080519060200190620008ec92919062000ccb565b5082600490805190602001906200090592919062000ccb565b5081600590805190602001906200091e92919062000ccb565b5060019050949350505050565b6000600154905090565b606060008251116200097e576040517f08c379a0000000000000000000000000000000000000000000000000000000008152600401620009759062001bcf565b60405180910390fd5b60608251604051908082528060200260200182016040528015620009bf57816020015b620009ab62000d52565b815260200190600190039081620009a15790505b50905060005b835181101562000a9a576000848281518110620009de57fe5b60200260200101516000015190508073ffffffffffffffffffffffffffffffffffffffff166347e468066040518163ffffffff1660e01b815260040160006040518083038186803b15801562000a3357600080fd5b505afa15801562000a48573d6000803e3d6000fd5b505050506040513d6000823e3d601f19601f8201168201806040525062000a73919081019062001374565b83838151811062000a8057fe5b6020026020010181905250508080600101915050620009c5565b5080915050919050565b600060606000808660405162000abb919062001a45565b908152602001604051809103902080549050111562000c265760008560405162000ae6919062001a45565b9081526020016040518091039020805480602002602001604051908101604052809291908181526020016000905b8282101562000bb257838290600052602060002090600302016040518060600160405290816000820160009054906101000a900473ffffffffffffffffffffffffffffffffffffffff1673ffffffffffffffffffffffffffffffffffffffff1673ffffffffffffffffffffffffffffffffffffffff168152602001600182015481526020016002820154815250508152602001906001019062000b14565b50505050905060005b815181101562000c24578482828151811062000bd357fe5b60200260200101516040015114801562000c0457508382828151811062000bf657fe5b602002602001015160200151145b1562000c165760019250505062000c2c565b808060010191505062000bbb565b505b60009150505b9392505050565b6040518060e00160405280600073ffffffffffffffffffffffffffffffffffffffff1681526020016000815260200160008152602001606081526020016060815260200160608152602001606081525090565b6040518060600160405280600073ffffffffffffffffffffffffffffffffffffffff16815260200160008152602001600081525090565b6110fb8062001f3683390190565b828054600181600116156101000203166002900490600052602060002090601f016020900481019282601f1062000d0e57805160ff191683800117855562000d3f565b8280016001018555821562000d3f579182015b8281111562000d3e57825182559160200191906001019062000d21565b5b50905062000d4e919062000da5565b5090565b6040518060e00160405280600073ffffffffffffffffffffffffffffffffffffffff1681526020016000815260200160008152602001606081526020016060815260200160608152602001606081525090565b62000dca91905b8082111562000dc657600081600090555060010162000dac565b5090565b90565b60008151905062000dde8162001ee7565b92915050565b60008135905062000df58162001f01565b92915050565b600082601f83011262000e0d57600080fd5b813562000e2462000e1e8262001cf8565b62001cca565b9150818183526020840193506020810190508360005b8381101562000e6e578135860162000e538882620010b1565b84526020840193506020830192505060018101905062000e3a565b5050505092915050565b600082601f83011262000e8a57600080fd5b813562000ea162000e9b8262001d21565b62001cca565b9150808252602083016020830185838301111562000ebe57600080fd5b62000ecb83828462001e91565b50505092915050565b600082601f83011262000ee657600080fd5b815162000efd62000ef78262001d21565b62001cca565b9150808252602083016020830185838301111562000f1a57600080fd5b62000f2783828462001ea0565b50505092915050565b600082601f83011262000f4257600080fd5b813562000f5962000f538262001d4e565b62001cca565b9150808252602083016020830185838301111562000f7657600080fd5b62000f8383828462001e91565b50505092915050565b600060e0828403121562000f9f57600080fd5b62000fab60e062001cca565b9050600062000fbd8482850162000dcd565b600083015250602062000fd384828501620011d7565b602083015250604062000fe984828501620011d7565b604083015250606082015167ffffffffffffffff8111156200100a57600080fd5b620010188482850162000ed4565b606083015250608082015167ffffffffffffffff8111156200103957600080fd5b620010478482850162000ed4565b60808301525060a082015167ffffffffffffffff8111156200106857600080fd5b620010768482850162000ed4565b60a08301525060c082015167ffffffffffffffff8111156200109757600080fd5b620010a58482850162000ed4565b60c08301525092915050565b600060c08284031215620010c457600080fd5b620010d060c062001cca565b90506000620010e284828501620011c0565b6000830152506020620010f884828501620011c0565b602083015250604082013567ffffffffffffffff8111156200111957600080fd5b620011278482850162000e78565b604083015250606082013567ffffffffffffffff8111156200114857600080fd5b620011568482850162000e78565b606083015250608082013567ffffffffffffffff8111156200117757600080fd5b620011858482850162000e78565b60808301525060a082013567ffffffffffffffff811115620011a657600080fd5b620011b48482850162000e78565b60a08301525092915050565b600081359050620011d18162001f1b565b92915050565b600081519050620011e88162001f1b565b92915050565b6000602082840312156200120157600080fd5b6000620012118482850162000de4565b91505092915050565b6000602082840312156200122d57600080fd5b600082013567ffffffffffffffff8111156200124857600080fd5b620012568482850162000dfb565b91505092915050565b6000602082840312156200127257600080fd5b600082013567ffffffffffffffff8111156200128d57600080fd5b6200129b8482850162000f30565b91505092915050565b60008060008060808587031215620012bb57600080fd5b600085013567ffffffffffffffff811115620012d657600080fd5b620012e48782880162000f30565b945050602085013567ffffffffffffffff8111156200130257600080fd5b620013108782880162000f30565b935050604085013567ffffffffffffffff8111156200132e57600080fd5b6200133c8782880162000f30565b925050606085013567ffffffffffffffff8111156200135a57600080fd5b620013688782880162000f30565b91505092959194509250565b6000602082840312156200138757600080fd5b600082015167ffffffffffffffff811115620013a257600080fd5b620013b08482850162000f8c565b91505092915050565b6000620013c78383620018a1565b905092915050565b620013da8162001e55565b82525050565b620013eb8162001df7565b82525050565b6000620013fe8262001d8b565b6200140a818562001db9565b9350836020820285016200141e8562001d7b565b8060005b858110156200146057848403895281516200143e8582620013b9565b94506200144b8362001dac565b925060208a0199505060018101905062001422565b50829750879550505050505092915050565b6200147d8162001e1f565b82525050565b6000620014908262001da1565b6200149c818562001ddb565b9350620014ae81856020860162001ea0565b620014b98162001ed6565b840191505092915050565b6000620014d18262001da1565b620014dd818562001dec565b9350620014ef81856020860162001ea0565b80840191505092915050565b6000620015088262001d96565b62001514818562001dca565b93506200152681856020860162001ea0565b620015318162001ed6565b840191505092915050565b6000620015498262001d96565b62001555818562001ddb565b93506200156781856020860162001ea0565b620015728162001ed6565b840191505092915050565b60006200158a8262001d96565b62001596818562001dec565b9350620015a881856020860162001ea0565b80840191505092915050565b6000620015c360438362001ddb565b91507f5468652075726c206973206e6f7420636f72726563742e20546865207661726960008301527f61626c6520697320656d70747920666f722074686973207472616e736163746960208301527f6f6e2e00000000000000000000000000000000000000000000000000000000006040830152606082019050919050565b60006200165160388362001ddb565b91507f546865206b65792d76616c75652028203c75726c3e202d3e203c70616765696460008301527f2c72657669643e202920616c72656164792065786973742e00000000000000006020830152604082019050919050565b6000620016b9602a8362001ddb565b91507f54686520646174616665656420697320656d7074792e20506c6561736520666960008301527f6c6c206974206f757421000000000000000000000000000000000000000000006020830152604082019050919050565b600062001721603b8362001ddb565b91507f54686520636f6e74726163742061646472657373206973206e6f742076616c6960008301527f642e20506c65617365206769766520616e6f74686572206f6e652e00000000006020830152604082019050919050565b60006200178960228362001ddb565b91507f5468657265206973206e6f20636f6e747261637420746f20636865636b206f7560008301527f742e0000000000000000000000000000000000000000000000000000000000006020830152604082019050919050565b600060e083016000830151620017fc6000860182620013e0565b50602083015162001811602086018262001a0a565b50604083015162001826604086018262001a0a565b5060608301518482036060860152620018408282620014fb565b915050608083015184820360808601526200185c8282620014fb565b91505060a083015184820360a0860152620018788282620014fb565b91505060c083015184820360c0860152620018948282620014fb565b9150508091505092915050565b600060e083016000830151620018bb6000860182620013e0565b506020830151620018d0602086018262001a0a565b506040830151620018e5604086018262001a0a565b5060608301518482036060860152620018ff8282620014fb565b915050608083015184820360808601526200191b8282620014fb565b91505060a083015184820360a0860152620019378282620014fb565b91505060c083015184820360c0860152620019538282620014fb565b9150508091505092915050565b600060c0830160008301516200197a600086018262001a0a565b5060208301516200198f602086018262001a0a565b5060408301518482036040860152620019a98282620014fb565b91505060608301518482036060860152620019c58282620014fb565b91505060808301518482036080860152620019e18282620014fb565b91505060a083015184820360a0860152620019fd8282620014fb565b9150508091505092915050565b62001a158162001e4b565b82525050565b62001a268162001e4b565b82525050565b600062001a3a82846200157d565b915081905092915050565b600062001a538284620014c4565b915081905092915050565b600060408201905062001a756000830185620013cf565b818103602083015262001a89818462001960565b90509392505050565b600060608201905062001aa96000830186620013cf565b62001ab8602083018562001a1b565b62001ac7604083018462001a1b565b949350505050565b6000602082019050818103600083015262001aeb8184620013f1565b905092915050565b600060208201905062001b0a600083018462001472565b92915050565b6000608082019050818103600083015262001b2c81866200153c565b905062001b3d602083018562001a1b565b62001b4c604083018462001a1b565b818103606083015262001b5f8162001642565b9050949350505050565b6000602082019050818103600083015262001b8481620015b4565b9050919050565b6000602082019050818103600083015262001ba681620016aa565b9050919050565b6000602082019050818103600083015262001bc88162001712565b9050919050565b6000602082019050818103600083015262001bea816200177a565b9050919050565b6000602082019050818103600083015262001c0d8184620017e2565b905092915050565b600060208201905062001c2c600083018462001a1b565b92915050565b600060a08201905062001c49600083018862001a1b565b62001c586020830187620013cf565b818103604083015262001c6c81866200153c565b905062001c7d606083018562001a1b565b62001c8c608083018462001a1b565b9695505050505050565b600060408201905062001cad600083018562001a1b565b818103602083015262001cc1818462001483565b90509392505050565b6000604051905081810181811067ffffffffffffffff8211171562001cee57600080fd5b8060405250919050565b600067ffffffffffffffff82111562001d1057600080fd5b602082029050602081019050919050565b600067ffffffffffffffff82111562001d3957600080fd5b601f19601f8301169050602081019050919050565b600067ffffffffffffffff82111562001d6657600080fd5b601f19601f8301169050602081019050919050565b6000819050602082019050919050565b600081519050919050565b600081519050919050565b600081519050919050565b6000602082019050919050565b600082825260208201905092915050565b600082825260208201905092915050565b600082825260208201905092915050565b600081905092915050565b600062001e048262001e2b565b9050919050565b600062001e188262001e2b565b9050919050565b60008115159050919050565b600073ffffffffffffffffffffffffffffffffffffffff82169050919050565b6000819050919050565b600062001e628262001e69565b9050919050565b600062001e768262001e7d565b9050919050565b600062001e8a8262001e2b565b9050919050565b82818337600083830152505050565b60005b8381101562001ec057808201518184015260208101905062001ea3565b8381111562001ed0576000848401525b50505050565b6000601f19601f8301169050919050565b62001ef28162001df7565b811462001efe57600080fd5b50565b62001f0c8162001e0b565b811462001f1857600080fd5b50565b62001f268162001e4b565b811462001f3257600080fd5b5056fe608060405260003411156200004c577ff5e9ca8cbdceb60d0b36065aba648e8b4572e6ae2a6b0518f04e389cc78836cd333442604051620000439392919062000074565b60405180910390a15b62000117565b6200005d81620000db565b82525050565b6200006e81620000d1565b82525050565b60006060820190506200008b600083018662000052565b6200009a602083018562000063565b620000a9604083018462000063565b949350505050565b600073ffffffffffffffffffffffffffffffffffffffff82169050919050565b6000819050919050565b6000620000e882620000ef565b9050919050565b6000620000fc8262000103565b9050919050565b60006200011082620000b1565b9050919050565b610fd480620001276000396000f3fe60806040526004361061007b5760003560e01c80634a79d50c1161004e5780634a79d50c146101725780635600f04f1461019d57806367382e8c146101c8578063c68226f8146101f35761007b565b80630bc8d6ac146100c857806318534ce6146100f357806347e468061461011e578063497af67714610149575b6000803690501461008b57600080fd5b7ff5e9ca8cbdceb60d0b36065aba648e8b4572e6ae2a6b0518f04e389cc78836cd3334426040516100be93929190610d6d565b60405180910390a1005b3480156100d457600080fd5b506100dd61021e565b6040516100ea9190610da4565b60405180910390f35b3480156100ff57600080fd5b506101086102bc565b6040516101159190610da4565b60405180910390f35b34801561012a57600080fd5b5061013361035a565b6040516101409190610dc6565b60405180910390f35b34801561015557600080fd5b50610170600480360361016b9190810190610adf565b61061c565b005b34801561017e57600080fd5b50610187610725565b6040516101949190610da4565b60405180910390f35b3480156101a957600080fd5b506101b26107c3565b6040516101bf9190610da4565b60405180910390f35b3480156101d457600080fd5b506101dd610861565b6040516101ea9190610de8565b60405180910390f35b3480156101ff57600080fd5b50610208610867565b6040516102159190610de8565b60405180910390f35b60058054600181600116156101000203166002900480601f0160208091040260200160405190810160405280929190818152602001828054600181600116156101000203166002900480156102b45780601f10610289576101008083540402835291602001916102b4565b820191906000526020600020905b81548152906001019060200180831161029757829003601f168201915b505050505081565b60048054600181600116156101000203166002900480601f0160208091040260200160405190810160405280929190818152602001828054600181600116156101000203166002900480156103525780601f1061032757610100808354040283529160200191610352565b820191906000526020600020905b81548152906001019060200180831161033557829003601f168201915b505050505081565b61036261086d565b6040518060e001604052803073ffffffffffffffffffffffffffffffffffffffff1681526020016000548152602001600154815260200160028054600181600116156101000203166002900480601f01602080910402602001604051908101604052809291908181526020018280546001816001161561010002031660029004801561042f5780601f106104045761010080835404028352916020019161042f565b820191906000526020600020905b81548152906001019060200180831161041257829003601f168201915b5050505050815260200160038054600181600116156101000203166002900480601f0160208091040260200160405190810160405280929190818152602001828054600181600116156101000203166002900480156104cf5780601f106104a4576101008083540402835291602001916104cf565b820191906000526020600020905b8154815290600101906020018083116104b257829003601f168201915b5050505050815260200160048054600181600116156101000203166002900480601f01602080910402602001604051908101604052809291908181526020018280546001816001161561010002031660029004801561056f5780601f106105445761010080835404028352916020019161056f565b820191906000526020600020905b81548152906001019060200180831161055257829003601f168201915b5050505050815260200160058054600181600116156101000203166002900480601f01602080910402602001604051908101604052809291908181526020018280546001816001161561010002031660029004801561060f5780601f106105e45761010080835404028352916020019161060f565b820191906000526020600020905b8154815290600101906020018083116105f257829003601f168201915b5050505050815250905090565b81600660006101000a81548173ffffffffffffffffffffffffffffffffffffffff021916908373ffffffffffffffffffffffffffffffffffffffff1602179055508060000151600081905550806020015160018190555080604001516003908051906020019061068d9291906108c0565b508060600151600590805190602001906106a89291906108c0565b508060800151600290805190602001906106c39291906108c0565b508060a00151600490805190602001906106de9291906108c0565b507f7b3c1e320e5e7fe3ab39c97301ad7d1ae0d4102131247b3a3cc841f62fbd18703060026000546001546040516107199493929190610d21565b60405180910390a15050565b60038054600181600116156101000203166002900480601f0160208091040260200160405190810160405280929190818152602001828054600181600116156101000203166002900480156107bb5780601f10610790576101008083540402835291602001916107bb565b820191906000526020600020905b81548152906001019060200180831161079e57829003601f168201915b505050505081565b60028054600181600116156101000203166002900480601f0160208091040260200160405190810160405280929190818152602001828054600181600116156101000203166002900480156108595780601f1061082e57610100808354040283529160200191610859565b820191906000526020600020905b81548152906001019060200180831161083c57829003601f168201915b505050505081565b60005481565b60015481565b6040518060e00160405280600073ffffffffffffffffffffffffffffffffffffffff1681526020016000815260200160008152602001606081526020016060815260200160608152602001606081525090565b828054600181600116156101000203166002900490600052602060002090601f016020900481019282601f1061090157805160ff191683800117855561092f565b8280016001018555821561092f579182015b8281111561092e578251825591602001919060010190610913565b5b50905061093c9190610940565b5090565b61096291905b8082111561095e576000816000905550600101610946565b5090565b90565b60008135905061097481610f63565b92915050565b600082601f83011261098b57600080fd5b813561099e61099982610e30565b610e03565b915080825260208301602083018583830111156109ba57600080fd5b6109c5838284610f10565b50505092915050565b600060c082840312156109e057600080fd5b6109ea60c0610e03565b905060006109fa84828501610aca565b6000830152506020610a0e84828501610aca565b602083015250604082013567ffffffffffffffff811115610a2e57600080fd5b610a3a8482850161097a565b604083015250606082013567ffffffffffffffff811115610a5a57600080fd5b610a668482850161097a565b606083015250608082013567ffffffffffffffff811115610a8657600080fd5b610a928482850161097a565b60808301525060a082013567ffffffffffffffff811115610ab257600080fd5b610abe8482850161097a565b60a08301525092915050565b600081359050610ad981610f7a565b92915050565b60008060408385031215610af257600080fd5b6000610b0085828601610965565b925050602083013567ffffffffffffffff811115610b1d57600080fd5b610b29858286016109ce565b9150509250929050565b610b3c81610eda565b82525050565b610b4b81610e9e565b82525050565b6000610b5c82610e71565b610b668185610e7c565b9350610b76818560208601610f1f565b610b7f81610f52565b840191505092915050565b6000610b9582610e71565b610b9f8185610e8d565b9350610baf818560208601610f1f565b610bb881610f52565b840191505092915050565b600081546001811660008114610be05760018114610c0657610c4a565b607f6002830416610bf18187610e8d565b955060ff198316865260208601935050610c4a565b60028204610c148187610e8d565b9550610c1f85610e5c565b60005b82811015610c4157815481890152600182019150602081019050610c22565b80880195505050505b505092915050565b600060e083016000830151610c6a6000860182610b42565b506020830151610c7d6020860182610d03565b506040830151610c906040860182610d03565b5060608301518482036060860152610ca88282610b51565b91505060808301518482036080860152610cc28282610b51565b91505060a083015184820360a0860152610cdc8282610b51565b91505060c083015184820360c0860152610cf68282610b51565b9150508091505092915050565b610d0c81610ed0565b82525050565b610d1b81610ed0565b82525050565b6000608082019050610d366000830187610b33565b8181036020830152610d488186610bc3565b9050610d576040830185610d12565b610d646060830184610d12565b95945050505050565b6000606082019050610d826000830186610b33565b610d8f6020830185610d12565b610d9c6040830184610d12565b949350505050565b60006020820190508181036000830152610dbe8184610b8a565b905092915050565b60006020820190508181036000830152610de08184610c52565b905092915050565b6000602082019050610dfd6000830184610d12565b92915050565b6000604051905081810181811067ffffffffffffffff82111715610e2657600080fd5b8060405250919050565b600067ffffffffffffffff821115610e4757600080fd5b601f19601f8301169050602081019050919050565b60008190508160005260206000209050919050565b600081519050919050565b600082825260208201905092915050565b600082825260208201905092915050565b6000610ea982610eb0565b9050919050565b600073ffffffffffffffffffffffffffffffffffffffff82169050919050565b6000819050919050565b6000610ee582610eec565b9050919050565b6000610ef782610efe565b9050919050565b6000610f0982610eb0565b9050919050565b82818337600083830152505050565b60005b83811015610f3d578082015181840152602081019050610f22565b83811115610f4c576000848401525b50505050565b6000601f19601f8301169050919050565b610f6c81610e9e565b8114610f7757600080fd5b50565b610f8381610ed0565b8114610f8e57600080fd5b5056fea365627a7a72315820fcf350a2c18839be6f22439f15843615d32a687a8cc19c2fe03c8b0c2d3bfaf76c6578706572696d656e74616cf564736f6c634300050c0040a365627a7a72315820105ff62dabcfdd19d7436b3f9741e0f6c793c36fba662fbb21f07846a7dae0506c6578706572696d656e74616cf564736f6c634300050c0040",
  "source": "pragma solidity ^0.5.0;\npragma experimental ABIEncoderV2;\n\nimport \"./WikiChainArticle.sol\";\nimport \"./WikiChainUtilities.sol\";\n\ncontract WikiChain{\n    \n   \tevent contractAlreadyExist(string, uint, uint, string);\n\tevent contractAdded(uint,address, string, uint, uint);\n\tevent requestFunction(uint, string);\n\tevent callContractData(address, uint, uint, string);\n\tevent newDeposit( address, uint, uint);\n\t\n\tmodifier positiveValue{\n\t    assert(msg.value > 0);\n\t    _;\n\t}\n\t\n\t// The register: save in \"storage\" per default.\n    mapping (string => WikiChainUtilities.Address2Id []) private URL2Addresses ;\n    uint private counter = 0;\n    \n    // Config for the loop\n    string rccontinue;\n    string lpcontinue;\n    string startdate;\n    string enddate;\n    \n    // The constructor\n    constructor() public payable { \n    \tif(msg.value > 0){\n    \t\temit newDeposit( msg.sender, msg.value, block.timestamp);\n    \t}\n    }\n\n    // If the contract received some ether, it will handel it\n\tfunction () external payable positiveValue {\n\t    require(msg.data.length == 0);\n\t    emit newDeposit( msg.sender, msg.value, block.timestamp);\n\t}\n\t\n\tfunction getRegisterCounter() public view returns(uint){\n\t    return counter;\n\t}\n\t\n\n\tfunction setLoopConfig(string memory rccont, string memory cont, string memory sdate, string memory edate ) public returns(bool){\n\t\trccontinue = rccont;\n\t\tlpcontinue = cont;\n\t\tstartdate = sdate;\n\t\tenddate = edate;\n\n\t   return true;\n\t}\n    \n    /* \n    * As a Factory, this method will generate new instances of the contract WikiChainArticle with the given datas.\n    */\n    function generateContracts4Articles( WikiChainUtilities.Article [] memory datas) public returns (uint) {\n       \n       // Minimun one entry should be available. throw a exception if the input array is empty.\n        require (datas.length > 0, \"The datafeed is empty. Please fill it out!\");\n        \n        WikiChainArticle tmp;\n        WikiChainUtilities.Address2Id memory a2p;\n        \n        uint len = uint(datas.length);\n        \n\t    for(uint i=0; i<len; i++){\n\t        \n\t        // We can verified if the data entry is correct ...\n\t        \n\t        // We control if a contract with the given url, pageid and revid already exist. And don create a new contract if it is the case.\n\t        if( lookup(datas[i].url, datas[i].pageid, datas[i].revid)) {\n\t           emit contractAlreadyExist(datas[i].url, datas[i].pageid, datas[i].revid, \"The key-value ( <url> -> <pageid,revid> ) already exist.\");\n\t           continue;\n\t        }\n\t        \n\t        //A new contract is generated for every tuple. We need to sent some Gas for the writing operation in the contract storage.\n\t        tmp = (new WikiChainArticle).value(30000000)();\n\t        tmp.setDatas(address(this), datas[i]);\n\t  \t        \n\t        // Save the new value in the register URL2Addresses\n    \t    a2p.contractaddress = address(tmp);\n    \t  \ta2p.revid = datas[i].revid;\n    \t  \ta2p.pageid = datas[i].pageid;\n    \t    \n    \t   // The new contract for the article must already exist at this point \n    \t   //assert(a2p.contractaddress != address(0)); \n    \t   \n    \t   // Even if the url already exist as key, the new infos will be save in the array mapping this url.\n    \t   URL2Addresses[datas[i].url].push(a2p);\n    \t   counter++;\n    \t   emit contractAdded(counter, a2p.contractaddress, datas[i].url, datas[i].pageid, datas[i].revid);\n\t    }\n\n\t    return counter;\n    }\n    \n    /*\n     * When the user is searching a url (coming from wikipedia),\n        1. the url should not be empty\n        2. we first lookup in the register \"URL2Addresses\", if some contracts exist for the given url.\n        3. If there is no entry in the register, we give a empty output back.\n        4. Otherwise, we would call the different contracts, collect the saved informations and sent it back as return value.\n     *\n    */\n   \tfunction request( string memory url) public returns (WikiChainUtilities.ArticleOutput [] memory) {\n        \n        // lookup in the register if a given url already exist before crawling the blockchain for the corresponding contracts\n        require (bytes(url).length > 0, \"The url is not correct. The variable is empty for this transaction.\");\n        \n        WikiChainUtilities.ArticleOutput [] memory outputs;\n        WikiChainUtilities.Address2Id [] memory results;\n        \n        // Control if there is already a entry for the given url in the register.\n        if ( URL2Addresses[url].length != 0 ){\n\t        results = URL2Addresses[url];\n\t        \n\t       // Call the informations out of the contract addresses, we just find.\n\t       outputs = callContracts(results);\n\t        \n\t    } else{\n\t        // There is not entry for the given url. Make sure the outputs array is empty.\n\t        delete outputs;\n\t    }\n\t    \n\t    emit requestFunction(outputs.length, url);\n\n\t    return outputs;\n      \n    }\n     \n    /*\n     * Lookup in the register if the given url, pageid and revid have already saved.\n     *\n    */\n  \tfunction lookup ( string memory url, uint pageid, uint revid) internal view returns (bool) {\n        // lookp in the register if a given url already exist before crawling the blockchain for the corresponding contracts\n        WikiChainUtilities.Address2Id [] memory results;\n        \n        if ( URL2Addresses[url].length > 0 ){\n\t        results = URL2Addresses[url];\n\t        \n\t        // Search for the given pair <pageid,revid>\n\t         for (uint i; i< results.length;i++){\n\t            if( results[i].pageid == pageid && results[i].revid == revid ){\n\t                return true;\n\t            }\n\t         }\n\t    } \n\t    return false;\n    }\n    \n    /*\n     * Call the contracts using the address found in the register.\n     *\n    */\n   \tfunction callContracts(WikiChainUtilities.Address2Id [] memory results) internal view returns (WikiChainUtilities.ArticleOutput [] memory){\n\t    \n\t    require (results.length > 0, \"There is no contract to check out.\");\n\t    \n\t    WikiChainUtilities.ArticleOutput [] memory ops =  new WikiChainUtilities.ArticleOutput [](results.length);\n\t    for (uint i; i< results.length;i++){\n\t        WikiChainArticle tmp = WikiChainArticle(results[i].contractaddress);\n            ops[i] = tmp.toString() ;\n        }\n\t   return ops;\n\t}\n\n\tfunction callContract(address payable article) public view returns (WikiChainUtilities.ArticleOutput memory){\n\t    \n\t    require (article != address(0), \"The contract address is not valid. Please give another one.\");\n\t    WikiChainArticle tmp = WikiChainArticle(article);\n\t    \n\t    //emit callContractData(article, tmp.pageid(), tmp.revid(), tmp.title());\n\t   \n\t   return tmp.toString();\n\t}\n\t\n}\n\n",
  "sourcePath": "/home/ngani/Dokumente/projects/WikiChainTrier/contracts/WikiChain.sol",
  "compiler": {
    "name": "solc",
    "version": "0.5.12+commit.7709ece9.Emscripten.clang"
  },
  "schemaVersion": "3.0.19",
  "updatedAt": "2019-12-18T13:34:54.376Z",
  "networkType": "ethereum",
  "devdoc": {
    "methods": {}
  },
  "userdoc": {
    "methods": {}
  }
}