{
  "contractName": "WikiChainArticle",
  "abi": [
    {
      "inputs": [],
      "payable": true,
      "stateMutability": "payable",
      "type": "constructor"
    },
    {
      "anonymous": false,
      "inputs": [
        {
          "indexed": false,
          "internalType": "address",
          "name": "",
          "type": "address"
        },
        {
          "indexed": false,
          "internalType": "string",
          "name": "",
          "type": "string"
        },
        {
          "indexed": false,
          "internalType": "uint256",
          "name": "",
          "type": "uint256"
        },
        {
          "indexed": false,
          "internalType": "uint256",
          "name": "",
          "type": "uint256"
        }
      ],
      "name": "dataSet",
      "type": "event"
    },
    {
      "anonymous": false,
      "inputs": [
        {
          "indexed": false,
          "internalType": "address",
          "name": "",
          "type": "address"
        },
        {
          "indexed": false,
          "internalType": "uint256",
          "name": "",
          "type": "uint256"
        },
        {
          "indexed": false,
          "internalType": "uint256",
          "name": "",
          "type": "uint256"
        }
      ],
      "name": "newDepositForArticle",
      "type": "event"
    },
    {
      "payable": true,
      "stateMutability": "payable",
      "type": "fallback"
    },
    {
      "constant": true,
      "inputs": [],
      "name": "hash_description",
      "outputs": [
        {
          "internalType": "string",
          "name": "",
          "type": "string"
        }
      ],
      "payable": false,
      "stateMutability": "view",
      "type": "function"
    },
    {
      "constant": true,
      "inputs": [],
      "name": "lastmodified",
      "outputs": [
        {
          "internalType": "string",
          "name": "",
          "type": "string"
        }
      ],
      "payable": false,
      "stateMutability": "view",
      "type": "function"
    },
    {
      "constant": true,
      "inputs": [],
      "name": "pageid",
      "outputs": [
        {
          "internalType": "uint256",
          "name": "",
          "type": "uint256"
        }
      ],
      "payable": false,
      "stateMutability": "view",
      "type": "function"
    },
    {
      "constant": true,
      "inputs": [],
      "name": "revid",
      "outputs": [
        {
          "internalType": "uint256",
          "name": "",
          "type": "uint256"
        }
      ],
      "payable": false,
      "stateMutability": "view",
      "type": "function"
    },
    {
      "constant": true,
      "inputs": [],
      "name": "title",
      "outputs": [
        {
          "internalType": "string",
          "name": "",
          "type": "string"
        }
      ],
      "payable": false,
      "stateMutability": "view",
      "type": "function"
    },
    {
      "constant": true,
      "inputs": [],
      "name": "url",
      "outputs": [
        {
          "internalType": "string",
          "name": "",
          "type": "string"
        }
      ],
      "payable": false,
      "stateMutability": "view",
      "type": "function"
    },
    {
      "constant": false,
      "inputs": [
        {
          "internalType": "address",
          "name": "reg",
          "type": "address"
        },
        {
          "components": [
            {
              "internalType": "uint256",
              "name": "pageid",
              "type": "uint256"
            },
            {
              "internalType": "uint256",
              "name": "revid",
              "type": "uint256"
            },
            {
              "internalType": "string",
              "name": "title",
              "type": "string"
            },
            {
              "internalType": "string",
              "name": "lastmodified",
              "type": "string"
            },
            {
              "internalType": "string",
              "name": "url",
              "type": "string"
            },
            {
              "internalType": "string",
              "name": "description",
              "type": "string"
            }
          ],
          "internalType": "struct WikiChainUtilities.Article",
          "name": "data",
          "type": "tuple"
        }
      ],
      "name": "setDatas",
      "outputs": [],
      "payable": false,
      "stateMutability": "nonpayable",
      "type": "function"
    },
    {
      "constant": true,
      "inputs": [],
      "name": "toString",
      "outputs": [
        {
          "components": [
            {
              "internalType": "address",
              "name": "myaddress",
              "type": "address"
            },
            {
              "internalType": "uint256",
              "name": "pageid",
              "type": "uint256"
            },
            {
              "internalType": "uint256",
              "name": "revid",
              "type": "uint256"
            },
            {
              "internalType": "string",
              "name": "url",
              "type": "string"
            },
            {
              "internalType": "string",
              "name": "title",
              "type": "string"
            },
            {
              "internalType": "string",
              "name": "description",
              "type": "string"
            },
            {
              "internalType": "string",
              "name": "lastmodified",
              "type": "string"
            }
          ],
          "internalType": "struct WikiChainUtilities.ArticleOutput",
          "name": "",
          "type": "tuple"
        }
      ],
      "payable": false,
      "stateMutability": "view",
      "type": "function"
    }
  ],
  "bytecode": "0x608060405260003411156200004c577ff5e9ca8cbdceb60d0b36065aba648e8b4572e6ae2a6b0518f04e389cc78836cd333442604051620000439392919062000074565b60405180910390a15b62000117565b6200005d81620000db565b82525050565b6200006e81620000d1565b82525050565b60006060820190506200008b600083018662000052565b6200009a602083018562000063565b620000a9604083018462000063565b949350505050565b600073ffffffffffffffffffffffffffffffffffffffff82169050919050565b6000819050919050565b6000620000e882620000ef565b9050919050565b6000620000fc8262000103565b9050919050565b60006200011082620000b1565b9050919050565b610fd480620001276000396000f3fe60806040526004361061007b5760003560e01c80634a79d50c1161004e5780634a79d50c146101725780635600f04f1461019d57806367382e8c146101c8578063c68226f8146101f35761007b565b80630bc8d6ac146100c857806318534ce6146100f357806347e468061461011e578063497af67714610149575b6000803690501461008b57600080fd5b7ff5e9ca8cbdceb60d0b36065aba648e8b4572e6ae2a6b0518f04e389cc78836cd3334426040516100be93929190610d6d565b60405180910390a1005b3480156100d457600080fd5b506100dd61021e565b6040516100ea9190610da4565b60405180910390f35b3480156100ff57600080fd5b506101086102bc565b6040516101159190610da4565b60405180910390f35b34801561012a57600080fd5b5061013361035a565b6040516101409190610dc6565b60405180910390f35b34801561015557600080fd5b50610170600480360361016b9190810190610adf565b61061c565b005b34801561017e57600080fd5b50610187610725565b6040516101949190610da4565b60405180910390f35b3480156101a957600080fd5b506101b26107c3565b6040516101bf9190610da4565b60405180910390f35b3480156101d457600080fd5b506101dd610861565b6040516101ea9190610de8565b60405180910390f35b3480156101ff57600080fd5b50610208610867565b6040516102159190610de8565b60405180910390f35b60058054600181600116156101000203166002900480601f0160208091040260200160405190810160405280929190818152602001828054600181600116156101000203166002900480156102b45780601f10610289576101008083540402835291602001916102b4565b820191906000526020600020905b81548152906001019060200180831161029757829003601f168201915b505050505081565b60048054600181600116156101000203166002900480601f0160208091040260200160405190810160405280929190818152602001828054600181600116156101000203166002900480156103525780601f1061032757610100808354040283529160200191610352565b820191906000526020600020905b81548152906001019060200180831161033557829003601f168201915b505050505081565b61036261086d565b6040518060e001604052803073ffffffffffffffffffffffffffffffffffffffff1681526020016000548152602001600154815260200160028054600181600116156101000203166002900480601f01602080910402602001604051908101604052809291908181526020018280546001816001161561010002031660029004801561042f5780601f106104045761010080835404028352916020019161042f565b820191906000526020600020905b81548152906001019060200180831161041257829003601f168201915b5050505050815260200160038054600181600116156101000203166002900480601f0160208091040260200160405190810160405280929190818152602001828054600181600116156101000203166002900480156104cf5780601f106104a4576101008083540402835291602001916104cf565b820191906000526020600020905b8154815290600101906020018083116104b257829003601f168201915b5050505050815260200160048054600181600116156101000203166002900480601f01602080910402602001604051908101604052809291908181526020018280546001816001161561010002031660029004801561056f5780601f106105445761010080835404028352916020019161056f565b820191906000526020600020905b81548152906001019060200180831161055257829003601f168201915b5050505050815260200160058054600181600116156101000203166002900480601f01602080910402602001604051908101604052809291908181526020018280546001816001161561010002031660029004801561060f5780601f106105e45761010080835404028352916020019161060f565b820191906000526020600020905b8154815290600101906020018083116105f257829003601f168201915b5050505050815250905090565b81600660006101000a81548173ffffffffffffffffffffffffffffffffffffffff021916908373ffffffffffffffffffffffffffffffffffffffff1602179055508060000151600081905550806020015160018190555080604001516003908051906020019061068d9291906108c0565b508060600151600590805190602001906106a89291906108c0565b508060800151600290805190602001906106c39291906108c0565b508060a00151600490805190602001906106de9291906108c0565b507f7b3c1e320e5e7fe3ab39c97301ad7d1ae0d4102131247b3a3cc841f62fbd18703060026000546001546040516107199493929190610d21565b60405180910390a15050565b60038054600181600116156101000203166002900480601f0160208091040260200160405190810160405280929190818152602001828054600181600116156101000203166002900480156107bb5780601f10610790576101008083540402835291602001916107bb565b820191906000526020600020905b81548152906001019060200180831161079e57829003601f168201915b505050505081565b60028054600181600116156101000203166002900480601f0160208091040260200160405190810160405280929190818152602001828054600181600116156101000203166002900480156108595780601f1061082e57610100808354040283529160200191610859565b820191906000526020600020905b81548152906001019060200180831161083c57829003601f168201915b505050505081565b60005481565b60015481565b6040518060e00160405280600073ffffffffffffffffffffffffffffffffffffffff1681526020016000815260200160008152602001606081526020016060815260200160608152602001606081525090565b828054600181600116156101000203166002900490600052602060002090601f016020900481019282601f1061090157805160ff191683800117855561092f565b8280016001018555821561092f579182015b8281111561092e578251825591602001919060010190610913565b5b50905061093c9190610940565b5090565b61096291905b8082111561095e576000816000905550600101610946565b5090565b90565b60008135905061097481610f63565b92915050565b600082601f83011261098b57600080fd5b813561099e61099982610e30565b610e03565b915080825260208301602083018583830111156109ba57600080fd5b6109c5838284610f10565b50505092915050565b600060c082840312156109e057600080fd5b6109ea60c0610e03565b905060006109fa84828501610aca565b6000830152506020610a0e84828501610aca565b602083015250604082013567ffffffffffffffff811115610a2e57600080fd5b610a3a8482850161097a565b604083015250606082013567ffffffffffffffff811115610a5a57600080fd5b610a668482850161097a565b606083015250608082013567ffffffffffffffff811115610a8657600080fd5b610a928482850161097a565b60808301525060a082013567ffffffffffffffff811115610ab257600080fd5b610abe8482850161097a565b60a08301525092915050565b600081359050610ad981610f7a565b92915050565b60008060408385031215610af257600080fd5b6000610b0085828601610965565b925050602083013567ffffffffffffffff811115610b1d57600080fd5b610b29858286016109ce565b9150509250929050565b610b3c81610eda565b82525050565b610b4b81610e9e565b82525050565b6000610b5c82610e71565b610b668185610e7c565b9350610b76818560208601610f1f565b610b7f81610f52565b840191505092915050565b6000610b9582610e71565b610b9f8185610e8d565b9350610baf818560208601610f1f565b610bb881610f52565b840191505092915050565b600081546001811660008114610be05760018114610c0657610c4a565b607f6002830416610bf18187610e8d565b955060ff198316865260208601935050610c4a565b60028204610c148187610e8d565b9550610c1f85610e5c565b60005b82811015610c4157815481890152600182019150602081019050610c22565b80880195505050505b505092915050565b600060e083016000830151610c6a6000860182610b42565b506020830151610c7d6020860182610d03565b506040830151610c906040860182610d03565b5060608301518482036060860152610ca88282610b51565b91505060808301518482036080860152610cc28282610b51565b91505060a083015184820360a0860152610cdc8282610b51565b91505060c083015184820360c0860152610cf68282610b51565b9150508091505092915050565b610d0c81610ed0565b82525050565b610d1b81610ed0565b82525050565b6000608082019050610d366000830187610b33565b8181036020830152610d488186610bc3565b9050610d576040830185610d12565b610d646060830184610d12565b95945050505050565b6000606082019050610d826000830186610b33565b610d8f6020830185610d12565b610d9c6040830184610d12565b949350505050565b60006020820190508181036000830152610dbe8184610b8a565b905092915050565b60006020820190508181036000830152610de08184610c52565b905092915050565b6000602082019050610dfd6000830184610d12565b92915050565b6000604051905081810181811067ffffffffffffffff82111715610e2657600080fd5b8060405250919050565b600067ffffffffffffffff821115610e4757600080fd5b601f19601f8301169050602081019050919050565b60008190508160005260206000209050919050565b600081519050919050565b600082825260208201905092915050565b600082825260208201905092915050565b6000610ea982610eb0565b9050919050565b600073ffffffffffffffffffffffffffffffffffffffff82169050919050565b6000819050919050565b6000610ee582610eec565b9050919050565b6000610ef782610efe565b9050919050565b6000610f0982610eb0565b9050919050565b82818337600083830152505050565b60005b83811015610f3d578082015181840152602081019050610f22565b83811115610f4c576000848401525b50505050565b6000601f19601f8301169050919050565b610f6c81610e9e565b8114610f7757600080fd5b50565b610f8381610ed0565b8114610f8e57600080fd5b5056fea365627a7a72315820fcf350a2c18839be6f22439f15843615d32a687a8cc19c2fe03c8b0c2d3bfaf76c6578706572696d656e74616cf564736f6c634300050c0040",
  "source": "pragma solidity ^0.5.0;\npragma experimental ABIEncoderV2;\n\nimport \"./WikiChainUtilities.sol\";\n\n/**\n * \n * Standard Template for the articles on the blockchain\n * \n**/\ncontract WikiChainArticle {\n\n\tuint public pageid;\n\tuint public revid;\n\tstring public url;\n\tstring public title;\n\tstring public hash_description; // HTML Texts are too big for savings on ethereum. Save it on IPFS or Swarm\n\tstring public lastmodified;\n\taddress register;\n\n\tevent newDepositForArticle( address, uint, uint);\n\tevent dataSet(address, string, uint, uint);\n\n\tconstructor () public payable {\n\t\t if (msg.value > 0){\n\t\t \temit newDepositForArticle( msg.sender, msg.value, block.timestamp);\n\t\t }\n\t}\n\n\t// If the contract received some ether, it will handel it\n\tfunction () external payable {\n\t    require(msg.data.length == 0);\n\t    emit newDepositForArticle( msg.sender, msg.value, block.timestamp);\n\t}\n\t\n\tfunction setDatas (address reg, WikiChainUtilities.Article memory data) public {\n        register = reg;\n\t    pageid = data.pageid;\n\t    revid = data.revid;\n\t    title = data.title;\n\t    lastmodified = data.lastmodified;\n\t    url = data.url;\n\t    hash_description = data.description;\n\t   \t    \n\t    emit dataSet( address(this), url, pageid, revid);\n\t}\n\t\n\tfunction toString () public view returns (WikiChainUtilities.ArticleOutput memory) {   \n\t    return WikiChainUtilities.ArticleOutput(address(this), pageid, revid, url, title, hash_description, lastmodified);\n\t}\n\n}\n\n",
  "sourcePath": "/home/ngani/Dokumente/projects/WikiChainTrier/contracts/WikiChainArticle.sol",
  "compiler": {
    "name": "solc",
    "version": "0.5.12+commit.7709ece9.Emscripten.clang"
  },
  "schemaVersion": "3.0.19",
  "updatedAt": "2019-12-18T13:34:54.369Z",
  "networkType": "ethereum",
  "devdoc": {
    "methods": {}
  },
  "userdoc": {
    "methods": {},
    "notice": " * Standard Template for the articles on the blockchain  *"
  }
}